:10000000001B0000000500007874000000000000E4
:1000100000000000000000000000000000000000E0
:1000200078FFE4B8200118F6D8F99000007F007E30
:1000300007E4F0A3DFFCDEFA7581790234FD1223B8
:100040008D122F1B90028A7401F022023EC374AA03
:100050007583F5758255A574557583FA7582AAA5C1
:1000600074A57583F5758255A5220002290C904070
:100070007FE493FF64316003EF7002002253A87F96
:100080000080FD022242123BCD902E42E4F0A37488
:10009000FFF07F01122A0112178922023EC0E709F0
:1000A000F608DFFA8046E709F208DFFA803E888228
:1000B0008C83E709F0A3DFFA8032E309F608DFFA60
:1000C0008078E309F208DFFA807088828C83E30984
:1000D000F0A3DFFA806489828A83E0A3F608DFFA5E
:1000E000805889828A83E0A3F208DFFA804C80D2AC
:1000F00080FA80C680D4806980F28033801080A628
:1001000080EA809A80A880DA80E280CA803389827F
:100110008A83ECFAE493A3C8C582C8CCC583CCF02B
:10012000A3C8C582C8CCC583CCDFE9DEE7800D89D2
:10013000828A83E493A3F608DFF9ECFAA9F0EDFBD9
:100140002289828A83ECFAE0A3C8C582C8CCC58321
:10015000CCF0A3C8C582C8CCC583CCDFEADEE8807A
:10016000DB89828A83E493A3F208DFF980CC88F0EC
:10017000EF60010E4E60C388F0ED2402B40400501D
:10018000B9F582EB2402B4040050AF232345822347
:100190009008CE73EF8DF0A4A8F0CF8CF0A428CEF9
:1001A0008DF0A42EFE22BC000BBE0029EF8DF08442
:1001B000FFADF022E4CCF875F008EF2FFFEE33FE30
:1001C000EC33FCEE9DEC984005FCEE9DFE0FD5F067
:1001D000E9E4CEFD22EDF8F5F0EE8420D21CFEAD70
:1001E000F075F008EF2FFFED33FD4007985006D56E
:1001F000F0F222C398FD0FD5F0EA22C2D5EC30E729
:1002000009B2D5E4C39DFDE49CFCEE30E715B2D500
:10021000E4C39FFFE49EFE120986C3E49DFDE49CB7
:10022000FC800312098630D507C3E49FFFE49EFEDD
:1002300022C5F0F8A3E028F0C5F0F8E58215827039
:10024000021583E038F022BB010A89828A83E0F537
:10025000F0A3E022500687F009E71922BBFE07E36E
:10026000F5F009E3192289828A83E493F5F0740199
:100270009322BB0110E58229F582E5833AF583E0FC
:10028000F5F0A3E0225009E92582F886F008E6227D
:10029000BBFE0AE92582F8E2F5F008E222E5832AAE
:1002A000F583E993F5F0A3E99322BB010789828ADC
:1002B00083020A11500B09C5F027F7C5F01937F76B
:1002C00022BBFE0D09F8E325F0F3C5F019E338F37E
:1002D00022F889828A8374019325F0C5F0F8E493AB
:1002E0003822BB010DC58229C582C5833AC5830268
:1002F0000A115011C58229F808E5F026F618F5F024
:10030000E58236F622BBFE11C58229F808E225F007
:10031000F5F0F218E23582F222F8E58229F582E55D
:10032000832AF58374019325F0F5F0E4933822BB1A
:10033000010A89828A83F0E5F0A3F0225006F709CA
:10034000A7F01922BBFE06F3E5F009F31922F8BB6A
:100350000111E58229F582E5833AF583E8F0E5F0BD
:10036000A3F0225009E92582C8F608A6F022BBFEB8
:1003700009E92582C8F2E5F008F222E88FF0A4CC62
:100380008BF0A42CFCE98EF0A42CFC8AF0EDA42CBC
:10039000FCEA8EF0A4CDA8F08BF0A42DCC3825F08B
:1003A000FDE98FF0A42CCD35F0FCEB8EF0A4FEA976
:1003B000F0EB8FF0A4CFC5F02ECD39FEE43CFCEA83
:1003C000A42DCE35F0FDE43CFC2275F008758200CA
:1003D000EF2FFFEE33FECD33CDCC33CCC58233C50A
:1003E000829BED9AEC99E58298400CF582EE9BFE9B
:1003F000ED9AFDEC99FC0FD5F0D6E4CEFBE4CDFAF6
:10040000E4CCF9A88222B800C1B90059BA002DEC99
:100410008BF084CFCECDFCE5F0CBF97818EF2FFF31
:10042000EE33FEED33FDEC33FCEB33FB10D70399D9
:100430004004EB99FB0FD8E5E4F9FA227818EF2F86
:10044000FFEE33FEED33FDEC33FCC933C910D705A5
:100450009BE99A4007EC9BFCE99AF90FD8E0E4C9C4
:10046000FAE4CCFB2275F010EF2FFFEE33FEED33F4
:10047000FDCC33CCC833C810D7079BEC9AE8994021
:100480000AED9BFDEC9AFCE899F80FD5F0DAE4CD83
:10049000FBE4CCFAE4C8F922EB9FF5F0EA9E42F0C7
:1004A000E99D42F0EC6480C864809845F022EB9F9F
:1004B000F5F0EA9E42F0E99D42F0E89C45F022E822
:1004C000600FECC313FCED13FDEE13FEEF13FFD82A
:1004D000F122ECF0A3EDF0A3EEF0A3EFF022ECF2AA
:1004E00008EDF208EEF208EFF222A8828583F0D040
:1004F00083D082120CE1120CE1120CE1120CE1E447
:1005000073E493A3C583C5F0C583C8C582C8F0A3AF
:10051000C583C5F0C583C8C582C822D083D082E414
:1005200093F208740193F208740293F2087403932F
:10053000F2740473A42582F582E5F03583F58322F5
:10054000EC8EF0A4CCC5F0CCCDF8EFA4CEC5F02D48
:10055000FDE43CFCE8A42EC8C5F03DFDE43CFCEF06
:10056000A4FFE5F028FEE43DFDE43CFC22EF4E60F4
:1005700012EF60010EEDBB010B89828A83F0A3DFCD
:10058000FCDEFA2289F05007F709DFFCA9F022BB54
:10059000FEFCF309DFFCA9F022208A030211289057
:1005A0000290E07002A3E06003021128786EE2700E
:1005B0000218E260030211281218D1600302112808
:1005C000782CE270297817121728FFAEF078051200
:1005D0001728D39FE5F09E40030211281217E2E48A
:1005E000787DF208F212193F900294121957757132
:1005F00000757212756900756A12E4F5B2F5BAC237
:1006000008F573F574F56BF56C758D20438D2075C9
:100610008D8043AA08D2AF758B02758EAF2005245A
:100620001218D1701F200B1CE5DB20E217758AC45D
:10063000200B0DE5DB20E208758703000000800633
:10064000D2088002D208758B11758A5053AAF7D34D
:1006500090028FE0949090028EE09401400EA3E00F
:100660002470F090028EE034FEF08007E490028E59
:10067000F0A3F0123B9A12183F9000EBE075F003E4
:10068000A4902EC3F0A3E4F0A3F0121884F56BA39A
:10069000E0F56C121774902E02E0F573A3E0F57488
:1006A00053997F123E4C123E80902E1EE0F522A3FD
:1006B000E0F523439980E56C2527FFE56B3526FEA1
:1006C000C3EF9523F56CEE9522F56BE5742527FFB6
:1006D000E5733526FEC3EF9523F574EE9522F57389
:1006E000C37884E2956CFF18E2956BFE123EA58EEE
:1006F0004A8F4BC37882E29574FF18E29573FE121D
:100700003EA58E578F58E574256CFFE573356BFE5B
:10071000C3EF9527F525EE9526F524121918E52542
:100720009FE5249E40048E248F251219107869E5D8
:1007300024F208E525F212199940030210E8121973
:10074000A340030210E8AE24AF257C007D10120DFB
:10075000201219ADAF70AE6FAD6EAC6D1217BBFB52
:10076000D3120C8E9002AC401EE0FCA3E0FDA3E08F
:10077000FEA3E09570FFEE956FFEED956EFDEC9596
:100780006DFC1219AD8007120CCA00000000E47F56
:10079000607EEAFDFC1217BBFBD3120C8E400A9060
:1007A00002AC120CCA0000EA607802121728FFAEF1
:1007B000F07C007D09120D201217BB1218F67B0A7F
:1007C0001217551219AD782CE27057788112175B09
:1007D000E4FCFDEB2574FFEA357312180DE47B0A87
:1007E0001217557881EEF208EFF20812175BE4FC5D
:1007F000FDEB256CFFEA356B12180DE47B0A12172E
:10080000557883EEF208EFF278081217331217D1F9
:1008100078021217331217D10812173D12185E0210
:1008200010E89002ACA3A3E0F9A3E0FF780212174E
:100830003D1217D17808121728FFAEF0E4FCFD1224
:1008400017BBFBD3120C8E50030210FD12171612A9
:1008500018BEFEC3EF9576EE957550030210FD7835
:1008600005121728FFAEF07C007D02120D20ECC0AF
:10087000E0EDC0E0EEC0E0EFC0E01217161218BEC7
:10088000FEE4FCFDD0E0FBD0E0FAD0E0F9D0E0F8E7
:10089000EB7B03121749780512173D1219247805CE
:1008A000121728D39430E5F094754008747575F0EC
:1008B00030120B0F7886E2604F121850404A7805CC
:1008C0001217281218BEFE123EA59002B0EEF0A339
:1008D000EFF07805121728FFC31217D9501212191A
:1008E00003400D780812173DF9E475F006120A8AE4
:1008F00078051217281217D7400ED3121903400893
:10090000780812173D121990200812121999500DEB
:100910001219A350081218D17003020DE97885E26C
:1009200004F2121895121799785BE522F208E52374
:10093000F27859E524F208E525F2782D7401F29059
:100940000292E4F0A374C8F022E4F50BF50CF50D67
:10095000F50EF511F512F50A121884FEA3E0251222
:10096000F512EE3511F511121774902E02E0FEA368
:10097000E0250CF50CEE350BF50B123E49123E80CE
:10098000439980902E1EE0FEA3E0250EF50EEE3575
:100990000DF50D050AE50AC3940340BC121910E5D4
:1009A00027240CFFE52634FEFED3EF950CEE950BC5
:1009B0004013786EE2700218E27010786D04F2084D
:1009C00074F4F28006E4786DF208F27865E50BF2D3
:1009D00008E50CF2786BE511F208E512F22527FF25
:1009E000E5113526FEC3EF950EF512EE950DF511C6
:1009F000E50C2527FFE50B3526FEC3EF950EF50C1C
:100A0000EE950DF50B7881F208E50CF208E511F290
:100A100008E512F2250CFFE50B3511FEC3EF952713
:100A2000F510EE9526F50F121918E5109FE50F9EAB
:100A300040048E0F8F107859E50FF208E510F20888
:100A4000E50DF208E50EF2AF10AE0F122FD7786960
:100A5000EEF208EFF29000B1E0B42003121799789B
:100A60006912186FE5612FF561E5603EF560ED35BF
:100A70005FF55FEC355EF55E0563E5637002056268
:100A8000C3E56794E8E5669403402AAE62AF63CBA2
:100A9000EFCB12181BAF61AE60AD5FAC5E120BE620
:100AA0008E648F65E4F561F560F55FF55EF562F5DE
:100AB00063F566F567D3E5659400E5649400405AF4
:100AC000786AE29565FF18E29564FE9002B2F0A3A1
:100AD000EFF0D394F8EE6480947F4019E09408908E
:100AE00002B2E064809480500CE564F208E565F29F
:100AF000E4F56880259002B2E0FEA3E0FF123EA577
:100B00001218E04003756803E568C39403500B783E
:100B100069E564F208E565F205689000B1E06410EB
:100B2000600302141178610812187DC3785AE29F9D
:100B3000FF18E29EFE123EA5D3EF9428EE64809447
:100B400080401F90028EE07002A3E070157872E280
:100B5000700218E2700C782CE270077873F2087457
:100B6000C8F278611217A8120B5BECC0E012176A8A
:100B7000785912186FD0E01217457861120CBE78C0
:100B80005BE2FA08E2FBD39400EA940040200808F4
:100B900012187DEB9FFFEA9EFE123EA51218E04060
:100BA0000D90028EE07002A3E07003121975785D5B
:100BB0001217A8120B5BECC0E012176A785B1218D0
:100BC0006FD0E0121745785D120CBED37874E294B2
:100BD0000018E294004025AE38AF397D031218A406
:100BE0007802CEC313CE13D8F9F5498E489000BED3
:100BF000E0B42008121975E408F208F278711218AE
:100C000052402ED3EF94D0EE9407500D9000BEE0EA
:100C100064206005E418F208F2AE28AF297D0712BF
:100C200018A47803CEC313CE13D8F9F5498E4880A3
:100C3000097869E2F54808E2F54978287C007D00EA
:100C40007B007A00792A7E007F2002094E12171657
:100C5000FDACF0D39FEC9E40337808121728FFC3F9
:100C6000ED9FFFEC95F0FED3EF9430EE9475400DC0
:100C70009002AE7475F0A37430F00214AF12172016
:100C80001218BE9002AEF0A3EFF080437802121764
:100C9000287808121725FDACF0C39FFFEC9EFED309
:100CA000EF9410EE9427400C9002AE74D8F0A37429
:100CB000F0F080147802121728FFC3ED9FFEEC9528
:100CC000F09002AEF0A3CEF0E49002AEF0A3F07884
:100CD0002CE260451217F1D39400EE6480948040BA
:100CE00016781A121728FDD3EF9DEE95F040089064
:100CF0000294121868801ED3900295E0940090022E
:100D000094E09400400F7805121728FF9002AEE59A
:100D1000F0F0A3EFF0D20A80119002987403F0A3D0
:100D200074E8F07A00794C12179DD39002AFE094EA
:100D3000009002AEE06480948050030216EFE0F968
:100D4000A3E0FF780512173D1217D11217F11219FF
:100D500089E47BB87A88F9F8C3120C78500A9002BB
:100D6000AE7488F0A374B8F0D3900297E09400902A
:100D70000296E0940050079000B1E0B4201D1217D5
:100D8000F1C39496EE648094805010EF9400EE646A
:100D9000809480402A7C007D0A8019300021782CC4
:100DA000E2701C1217F1C394B8EE6480948B500F5C
:100DB0007C007D321209DB9002AEEEF0A3EFF078FA
:100DC0002CE270030216CB900298E07002A3E06060
:100DD000030216CB1217F1121989E54F2FF54FE5D3
:100DE0004E3EF54EE54D3DF54DE54C3CF54C05517F
:100DF000E55170020550C3E55594E8E5549403505D
:100E000003021664AE50AF51CBEFCB12181BAF4F9D
:100E1000AE4EAD4DAC4C120BE69002B0EEF0A3EF2F
:100E2000F0C3E5539FFFE5529EFE123EA59002B22D
:100E3000EEF0A3EFF0D39432EE94005006E5534564
:100E400052700C9002B0E0F552A3E0F5538024D329
:100E50009002B1E095539002B0E0955240097402BF
:100E60002553F553E4800874FE2553F55374FF357C
:100E700052F552E4F54FF54EF54DF54CF550F55160
:100E8000F554F555D3E5539400E552940040309065
:100E900002AFE09553FF9002AEE09552FE123EA5E0
:100EA000C3EF9464EE648094805008121933E4F523
:100EB00056800CE556C3940750051219330556E5C4
:100EC000DB20E23F780E121728FFAEF07C007D0F8A
:100ED0001217641217F1121989EB1218F67B10120F
:100EE0001755780E12173DF9EE8013E5DB20E2135B
:100EF0009002AEE0F9A3E0FF780E12173DC98FF023
:100F0000120B0F780E12172824A8FFE5F0801B782B
:100F10000512173D12185E780E12173D12185E90DA
:100F200002AFE024A8FF9002AEE03461F9780B1222
:100F3000173D1217D1227808E2FB08E2FA08E2F91D
:100F4000120A277802FFAEF0E2FB08E2FA08E2F9A3
:100F5000020A279002ACA3A3E0F9A3E0FFE2FB089A
:100F6000E2FA08E222F8EB7B0C2FFFEA3EFEED39B5
:100F7000FDEC38FCE4FAF9F8020BE6E2FE08E2FFC9
:100F80007D097C00120D20C8ECC8C9EDC9CAEECAA3
:100F9000CBEFCB2253997F43AB025389FD5395FD91
:100FA0005396FD123BDF123E804389025395FD5359
:100FB00096FD438002439980227A00795E7E007F0D
:100FC0000B7D007B00020D4DE47F0BFEFDFCE2FB80
:100FD00008E2F908E2FA08E2CBF8229002ACE0F865
:100FE000A3E0F9A3E0FAA3E02208F2087401F208F2
:100FF00022C98FF0020B0FD3FF788BE29F18E29586
:10100000F0227F087A00792E7E007D007BFE020DA3
:101010004D9002AEE0FEA3E0FF22E50A25E0242881
:10102000F8E6FE08E622F8EB2FFFEA35F0FEED3990
:10103000FDEC38FC2208E2FE08E2FBCAEECAE4F945
:10104000F822902E427D14E0FEA3E0FF7C0002090E
:1010500074D39002AFE094649002AEE094002290CA
:101060002EC07402F022E22401F218E23400F222CF
:10107000788AE2FE08E2FFD39400EE940022F9E4BD
:10108000F5F0020B0F900290E4F0A37464F022E2FA
:10109000FE08E2FFE4FCFD22E2FC08E2FD08E2FEBD
:1010A00008E2FF22123D3C123E80439940439040AB
:1010B000902E1CE0227E007F057D007B007A007967
:1010C00059020D4D7C00120974786AE22FFF18E274
:1010D0003EFEEF22E4F50EF50DF50CF50B22C39F55
:1010E000FFE5F09E22782E0808E2F908E2FF780872
:1010F000229000B1E0642022FFE5F0F208EFF22236
:10110000D3EF9414EE6480948022AB0EAA0DA90C48
:10111000A80BD3020C8E2FFFEA3EFEE93DFDE83C12
:10112000FCE4229002B1E0940A9002B0E094002224
:10113000902EC4E4F0A3F022E5272488FFE52634AE
:1011400013FED322F9EE8FF0020B0FE4F208F2083F
:10115000F208229002AEE552F0A3E553F022E490AB
:101160000296F0A3F022D39414E5F0940022F974CF
:101170006175F0A8020B0FF0A3F090029AF0A3F0B3
:1011800022902EE8F0902EEBF0A322FEEF2401FF38
:10119000E43EC313227871740BF20874B8F222E2B1
:1011A000FC08E2FDC3EF9DFF22EE3395E0FDFC223B
:1011B000F974FF75F0FA020A8AC3E5589572E5578B
:1011C000957122C3E54B956AE54A9569229002AC78
:1011D000020CB290024CE0FBA3E0FAA3E09002AD57
:1011E000F9E0FF75F002A4F58285F083120A52FD42
:1011F000ACF090024FE0FBA3E0FAA3E0F9229002EA
:10120000ACE0FF75F002A4F58285F08322F583E05F
:10121000FCA3E0FDEF25E0242BF582E43402F58306
:1012200022248BF582E43402F583E075F002A424D5
:1012300040F582E5F0342EF5832274002FF582E428
:101240003401F583E0FEEF25E0242CF582E4342E12
:10125000F583E49324C0F582E4342EF583EEF02286
:101260009002B1E0FD25E0246AF582E43402F583C2
:10127000229002ADE025E02470F582E43402F5838B
:10128000229002B1E0FF2476F582E43402F583E097
:1012900004F074762FF582E43402F58322F0EF2512
:1012A000E025E02420F582E4343EF583E4932290A7
:1012B00002AFE0FEA3E0FF900271E02FF090027019
:1012C000E03EF0E0FEA3E0FFD322241AF582E43EE4
:1012D000F58322F0747F2FF582E43402F5832290A7
:1012E00002BEE0FEA3E0229002ADE0247CF582E4A1
:1012F0003402F5832274792FF582E43402F58322D7
:10130000F583E493FC740193FDEF25E022120A5269
:10131000FDACF090024C229002AEE0FEA3E0FF2272
:1013200074432FF582E43402F58322FFEE34FEFE8F
:101330007C007D0A1209747D32120986EF22F58243
:10134000E43AF583EFF022120A52C39DFFE5F09CC8
:10135000FE2225E02431F582E43402F58322C3E045
:10136000FDEF9D7480F86E9822902EC07402F022DA
:10137000F582E43CF58322EC8DF0020B2E25E0246F
:1013800025F582E43402F583E5F0F0A322FF900214
:10139000BEE0FCA3E0FDF5828C83A322F582E43459
:1013A00002F583E022120A27FFAEF090024C22A33E
:1013B000F0A37401F0A3229002ADE0FD7F0522901E
:1013C00002ADE0FD7F0422E4F0A3F090024C2290F5
:1013D00002ADE0FDE4FF22F5ABF5AD7589FF75992F
:1013E000FF22E0FF9002BEE0FAA3E0FB229002ACF5
:1013F000E004F022120A27C39FFFE5F09E22E0FEE0
:10140000A3E02DFFEE35F022788E1217AEE8C0E093
:10141000E9C0E0EAC0E0EBC0E0781D121728FFE465
:10142000FCFDD0E0FBD0E0FAD0E0F9D0E0121806E5
:10143000788E120CBE78931218467895E2700218D6
:10144000E26003021DC8788E121878EEC0E0EFC08B
:10145000E0121815D0E0FFD0E0FE120BE6788E12F5
:101460000CBE788E0808E2FF08E2788CCFF208EF15
:10147000F208120CFB00000000789212192B74C8BD
:10148000F290028EE07002A3E06003021DC8782C87
:10149000E27003021DC87888E2FE08E2FF4E701D6C
:1014A000788CE2FD08E27888CDF208EDF27805123A
:1014B0001728FD788AE5F0F208EDF28044788C1266
:1014C000197FEE9CFE123EA5789612173D12192444
:1014D0007886E2702C7896121728C3121947501C90
:1014E000900298E07002A3E07006788604F2801102
:1014F0007805121728788A1218D880057886740122
:10150000F27886E27003021DC81218505003021DC3
:10151000C878051217281218BEFE123EA59002AE1A
:10152000EEF0A3EFF0A37432F07896121728121998
:101530004640069002B07446F0780512172812173C
:10154000D740109002B0E0FFD39002AFE09F121896
:10155000385005121831404FE47886F2788E120C1C
:10156000FB00000000E47892F208F2789612172847
:10157000121946400A7894E4F20874C8F2800E7892
:10158000947403F20874E8F2121831405B788CE22C
:10159000FF08E27888CFF208EFF27805121728FFEB
:1015A000788A1218D9804178051217281217D74067
:1015B00014D39002AFE0940A121838400878081249
:1015C000173D1219907805121728C31217D8501812
:1015D0009002AFE0940A121838400D780812173DB7
:1015E000F9E475F006120A8A782CE27009788812FC
:1015F000192CF27886F2229002ADEFF09002B074CE
:101600000CF02405A3F01219D29002AD1219E112C8
:101610001AED1219D575F002EF1219E6121B279078
:1016200002AEF0A3EFF0123EA59002B0121B3E40B6
:1016300003021E9F9002ADE0FF121ACBE0600AEF9A
:10164000121A55E4F0A3F0800C121AF7121A51EE98
:101650008FF0120A11121A51121AA3940FEE64801D
:101660009480401C9002ADE0FD121A55E4F0A3F006
:101670001219D275F002ED1219E6E475F001802519
:10168000C3EF94F1EE6480947F501D9002ADE0FFB3
:10169000121A55E4F0A3F01219D275F002EF1219E4
:1016A000E674FFF5F0120AC29002ADE0FD24431289
:1016B0001B03E4F07F04123C5E121B97021F719023
:1016C00002ADE0FF2443121B03E0704B121B0074B9
:1016D00001F0121AF7123EA5C3EF9432EE64809423
:1016E00080503490024C1219D59002ADE01219E3EB
:1016F000120A52FBAAF0121AF77C007D031209DBD2
:10170000C3EB9FFFEA9EFE1219D29002ADE01219C0
:10171000E3EE8FF0120B2E121AF7123EA59002ADD7
:10172000E0FD121B32E0FAA3E0D39FEA9E402A7448
:101730007C2D121ACDE070279002ADE07F05122DAE
:101740005D121B971231E0EF60151219B375F002AC
:10175000EF1219E6121B578006121B97123C5EC34C
:101760009002AFE094F49002AEE06480947F501E4B
:10177000121B9F122D5D121B9F1231E0EF6015129C
:1017800019B375F002EF1219E6121B578006121BEF
:101790009F123C5E1219D29002AD1219E1121AED9D
:1017A0001219D575F002EF1219E6121B2790025597
:1017B0001219D59002ADE01219E3EE8FF0020B2E54
:1017C0009002ACEFF01219D21219DE121AED1219B2
:1017D000D575F002EF1219E6120A52C39DE5F09C8E
:1017E000402D90024CA3A39002ACE01219E3120A20
:1017F00052FDEF121B5DEDF09002551219D5121932
:10180000DE120A521219F3E5F0F0A3EDF0802290F7
:1018100002ACE0FF1219F5121BA71219D575F002E0
:10182000EF1219E6120A52FF9002ACE0121B5DEFB4
:10183000F09002ACE0FF1219F5E0FCA3E0C3943293
:10184000EC940050071219F4E4F0A3F09002ACE01D
:10185000FF6401705B1219F4121AA3944AEE94010A
:10186000401B9002ACE0FBEF24B6121B0B244AFF96
:10187000EE3401FEEB1219F5EEF0A3EFF09002AC9E
:10188000E0FD1219F5121BC2240A121B1EED1219DB
:10189000F5A3E0FFEB240B121B1E1219D21219DE66
:1018A000120A521219F3121BDE9002ADF0A3EFF0F0
:1018B0009002ACE0FF6402705B1219F4121AA39458
:1018C0002CEE9401401B9002ACE0FBEF24D4121BE1
:1018D0000B242CFFEE3401FEEB1219F5EEF0A3EF12
:1018E000F09002ACE0FD1219F5121BC2240C121B81
:1018F0001EED1219F5A3E0FFEB240D121B1E1219A9
:10190000D21219DE120A521219F3121BDE9002AF24
:10191000F0A3EFF02290028AE024FE601914602CFC
:101920001470030221DD2403600302224190028A25
:101930007402F01238A9123E937F017E00123136F4
:1019400090028A7403F0E49002A2F022123DAB9060
:101950000288E070030221C29002A2E004F0E49049
:1019600002ABF09002ABE0FFC394035070900249C9
:101970001219D59002ABE0FE1219C375F002EE12F7
:1019800019E6121B579002491219D59002ABE0FEDE
:101990001219E3121AED1219D575F002EE1219E6BA
:1019A000121B57EFB40113121ABFFF240A121AAC0C
:1019B000E4F0EF240B121AACE4F09002ABE0B402B6
:1019C00013121ABFFF240C121AACE4F0EF240D120C
:1019D0001AACE4F09002ABE004F0022143E4900280
:1019E00088F09002A2E0C394034076900224747EB3
:1019F000F0E49002A2F090028A7404F0221236AF52
:101A00001239559002C4E07003123DAB900288E099
:101A1000B4012D122BC9E49002ABF09002ABE0FFB1
:101A2000C39403500B121FA09002ABE004F080EBB4
:101A30001224C31235C290028AEFF0E4900288F0BB
:101A400090029FE0A3F0786EE26401700218E270E9
:101A50000B786DF208F290028A7402F0E490029F13
:101A6000F022C0E0C083C082C0D0E8C0E0D2AF9016
:101A7000029FE004F0D390028FE0940090028EE089
:101A80009400400CA3E024FFF090028EE034FFF0BD
:101A9000D3900291E09400900290E09400400CA357
:101AA000E024FFF0900290E034FFF0D3900293E046
:101AB0009400900292E09400400CA3E024FFF09088
:101AC0000292E034FFF0D3900295E09400900294EB
:101AD000E09400400CA3E024FFF0900294E034FF77
:101AE000F0D3900297E09400900296E09400400CAE
:101AF000A3E024FFF0900296E034FFF0D390029D23
:101B0000E0940090029CE09400400CA3E024FFF0DD
:101B100090029CE034FFF0D390029BE0940090028E
:101B20009AE09400400CA3E024FFF090029AE03485
:101B3000FFF0D3900299E09400900298E094004066
:101B40000CA3E024FFF0900298E034FFF0C3E567B7
:101B500094E8E566940350080567E567700205663A
:101B6000C3E55594E8E554940350080555E55570D0
:101B70000205547895122EBB4003122E95D3786E31
:101B8000E2940118E294004003122E957872122E0E
:101B9000BB4003122E95D37874122EBC4003122E34
:101BA00095D0E0F8D0D0D082D083D0E0327E007FD4
:101BB000FF7D007B017A00799A120D4D9002BE7470
:101BC00000F0A3749AF09002497401F0A37401F03C
:101BD000A3744EF090024F7401F0A37401F07442AC
:101BE000121B8F7401F0A3742AF090024C7401F060
:101BF000A37401F0A3745CF09002557401F0A37417
:101C000001F07468121B8F7400F0A374B5121B905E
:101C10007401F0A37498F0902DE0E493121B6DEF23
:101C2000F0ED2404121B50E578F0ED2405121B5052
:101C3000E577F0ED2406121B50E579F0902DE2E4F3
:101C400093FFED2412121B50EFF0902DE3E493FF6D
:101C5000ED2414121B50EFF090025E7401F0A37497
:101C600000F0A374D2F0E4FF75F002EFA42401F5B4
:101C700082E5F0342EF583E493FE74EA2FF582E4D6
:101C80003400F583EEF0EF25E0242DF582E4342EC8
:101C9000F583E493FE74002FF582E43401F583EEBE
:101CA000F0121A1A0FEFB416BF902F56E09000EE04
:101CB000F0902F56E0900104F09001957401F0909F
:101CC0000194F0E490018AF0A37410F09000B1F058
:101CD0009000BEF0A37420F090028E7413F0A374F1
:101CE00088F0229002AC747EF0E4A3F09002ADE0A4
:101CF000FFC3940340030225CC121AD5E0706E9006
:101D000002ADE025E02437F582E434021219EDE05B
:101D1000FEA3E0C39DEE9C40389002ADE09002AC83
:101D2000F02479121AD87401121AB37401F0121B3C
:101D3000AF123C5E9002ADE0FD7F02123C5E7F027E
:101D40001225DBFD7F08122D5D121AC77401F08089
:101D50000E121BAF1231E0EF6005121AC7E4F090CB
:101D600002ADE0FD7F011231E0EF0225C39002AD2C
:101D7000E0FF25E0243DF582E434021219EDE0FE97
:101D8000A3E0C39DEE9C402D9002ADE0FD9002AC1F
:101D9000F07F081231E0EF604A90024CE0FBA3E0D4
:101DA000FAA3E09002AD1219C075F002EF1219E625
:101DB000121B5780009002ADE0FD2479121AD8E47E
:101DC000F07F08123C5E121BAF122D5D9002ADE059
:101DD000FD7F01123C5E7F011225DB247F121AB7C2
:101DE0007401F09002ADE004F00224CC9002ACE06B
:101DF000FF900289E06F6002EFF0229002ADE0FDFB
:101E0000122D5D9002ADE0221218B4F515F516857D
:101E10002811852912852813852914F50A1217FA25
:101E2000FFD3E5149FE5139E40078E138F14850A98
:101E300016C3E5129FE5119E50078E118F12850A79
:101E400015050AE50AB410D5E4F50FF510F50AE515
:101E500016650A602EE515650A6028E510450F70C5
:101E600010E50A25E02428F8E6F50F08E6F51080CD
:101E7000121217FA2510FFE50F3E12196BF50FEF3E
:101E800013F510050AE50AB410C51218B4F50A12C4
:101E900017FAFFC3E5109FFFE50F9EFE123EA5D384
:101EA000EF9419EE64809480400FE4FCFDE50E256C
:101EB00010F50EE50D350F800F1217FAFFE4FCFD4B
:101EC000E50E2FF50EE50D3EF50DED350CF50CECA0
:101ED000350BF50B050AE50AC3941040B2AF70AE9E
:101EE0006FAD6EAC6D1218EA401AE50E9570F50EE6
:101EF000E50D956FF50DE50C956EF50CE50B956D03
:101F0000F50B80031218B4E47F607EEAFDFC121822
:101F1000EA400BE4750E60750DEAF50CF50BAE0D9D
:101F2000AF0E229002B1EFF090024C1219D5900240
:101F3000B11219E1120A52FDACF09002491219D502
:101F400075F002EF1219E6121B27121A40EE8FF0FD
:101F5000120A11ED121A45E0FEA3E0FF123EA5D3CE
:101F6000EF9414EE64809480505C9002B1E0121AF9
:101F700045121AA39403EE648094804016121A400E
:101F8000121BA71219D575F002ED1219E6E475F0CF
:101F9000018024C3EF94FDEE6480947F501C900276
:101FA000B1E0FF121A45121BA71219D575F002EF06
:101FB0001219E674FFF5F0120AC29002B1E024761D
:101FC000121A75E4F0229002B1E0121A45E0FEA365
:101FD000E0FF123EA59002B1E0121B32E0FCA3E04C
:101FE000D39FEC9E400B121A61E0D39402403A80DA
:101FF00009121A61E0D39401402F9002B1E0FF1260
:102000001A45E4F0A3F09002491219D575F002EFD9
:102010001219E6120A52121B881219D59002B1E069
:102020001219E3EE8FF0120B2E22787DE2FE08E209
:10203000FFC39404EE9400501A7800E2FC08E2FD1D
:10204000EF25E02475F8ECF208EDF2787E121846E0
:102050000228AE750D01E50D25E02475F8E2FE08B5
:10206000E2FFE50D25E02473F8EEF208EFF2050D2E
:10207000E50DB404E17802121728FF780012197FE9
:10208000E5F09CFE123EA5C3EF9428EE6480948098
:10209000502F782CE2701E7808121728FFC37801A1
:1020A000E29FFF18E295F0FE123EA5C31218E15020
:1020B00004780880027802121728FF787BE5F08008
:1020C000097800E2FF08E2787BCFF208EFF2E4F54E
:1020D0000CF50BF50AF509F50DD3787EE2950D1890
:1020E000E294004022E50D25E02475F812186FE512
:1020F0000C2FF50CE50B3EF50BED350AF50AEC352A
:1021000009F509050D80D2AF0CAE0BAD0AAC09EE96
:10211000C0E0EFC0E0787D121816D0E0FFD0E0FEFE
:10212000120BE68F0C8E0B8D0A8C0922C0E0C08347
:10213000C082C0D0ECC0E0EDC0E0EEC0E0EFC0E097
:10214000D2AFE5DB30E417D20BC207E5DB30E102AA
:10215000802C9002BDE5DFF0751D000229E9E5DB6A
:1021600030E50FD205300705C2070229E9C20B028C
:1021700029E9C207E5DB30E12FE5DB30E011AF1ED6
:10218000051E123E6E2F123E67E0F5DF0229E9E5DB
:102190001EB4080A208A07D28A9000A1E4F0E51E46
:1021A000641A7065D2068061E51D700A85DF1E75B0
:1021B0001D01D2078053E51E903B3093FFB4FF0A08
:1021C0009002BDE5DFF0051E803FEF640F70201226
:1021D0003E6EFD123E65E0540FF0AF1E051EED2F62
:1021E000123E67E0FFE5DF54F0FEEF4EF0801A127A
:1021F0003E6E123E65E5DFF0E51EB4240A900290C3
:102200007401F0A374F4F0051E75DBFFD0E0FFD07D
:10221000E0FED0E0FDD0E0FCD0D0D082D083D0E092
:10222000329002B2EFF09002B7E4F0A374FFF0E452
:10223000A3F0A3F0A304F0A374FFF0121B49902EA7
:10224000C37408F0E49002B3F0A3F09002B3E0FE90
:10225000A3E0FFC39409EE94004003022AE6EF9442
:1022600007EE940040067E007F0180199002B3A320
:10227000E004FFE47E01C8EFC8088006CEA2E713A1
:10228000CE13D8F8FF9002B5EEF0A3EFF0902EC079
:102290007419F0902EC0E030E2F99002B2E0FF75C0
:1022A000F002A42400121A11E0FCA3E0FD121B4965
:1022B000D3ED94FFEC940F40179002B5E0FCA3E03F
:1022C000FD75F002EF121A0EEC8DF0120A11802546
:1022D0009002B2121A0AC083C082E0FEA3E0FF900F
:1022E00002B5E0FCA3E0FDC3EF9DFFEE9CD082D0E1
:1022F00083F0A3EFF09002B4E004F070069002B314
:10230000E004F0022A2B7F0022E49002AEF0A3F05A
:10231000782CE260061217E2022BBE782E1217AE5E
:10232000E8C0E0E9C0E0EAC0E0EBC0E078021217E4
:1023300028FFE4FCFDD0E0FBD0E0FAD0E0F9D0E0EB
:10234000121806782E120CBE78331218469002929C
:10235000E07002A3E06003022BC8782E121878EE1A
:10236000C0E0EFC0E0121815D0E0FFD0E0FE120B85
:10237000E6782E120CBE78081217282428FFE435C0
:10238000F0FEE4FCFD782E1217AED3120C8E402E18
:1023900090028EE07002A3E07024200A21783512AA
:1023A0001846D308E2940518E2940040221218C59A
:1023B00012173D1217D1E47834F208F28011121886
:1023C000C512173D1217D1E47834F208F2C20A7828
:1023D0002E120CFB00000000E47832F208F29002AA
:1023E000927402F0A374BCF022122C94E49002AC1C
:1023F000F09002ACE0FFC394034003022C8EEF6028
:102400007A1227039002ACE0FF121DD7300316208A
:1024100002139002551219D59002ACE01219E3E4B0
:10242000F5F0120B2E9002551219D59002AC12192C
:10243000E1120A52FDACF0C39406EC648094805023
:10244000028050C3ED9432EC648094805057900227
:10245000551219D59002ACE075F002A4F582E92579
:1024600082F9EA35F0FA120A27FFAEF07C007D020D
:102470001209DBEE8FF0120B0F802A900255121911
:10248000D59002AC1219E1120A52C3E5F0648094AF
:10249000805012900255A3A375F002EF1219E6E4E2
:1024A000F5F0120B2E9002ACE004F0022BD1E49078
:1024B0000288F0229002AD7408F02405A3F0E4FF36
:1024C0001227031219D2121B851219D5121BD4FE22
:1024D0009002AFF0A3EFF0123EA59002AD121B3EAA
:1024E000501C121A8F940AEE64809480400280443B
:1024F000C3EF94F6EE6480947F5065022D2F900216
:10250000AFE0FEA3E0FF123EA59002AED3121B3F48
:10251000401690024C1219D5120A27FF1219D2E563
:10252000F08FF0120B0F8038121A8F9464EE6480D3
:1025300094804010E4900270F0A3F01219D2E47578
:10254000F0018019C3EF949CEE6480947F5011E4F5
:10255000900270F0A3F01219D274FFF5F0120A8AFB
:102560001219D2121B851219D5121BD4F9900255DB
:10257000E0FBA3E0FAA3E0C98FF0020B0F9002B3D7
:10258000EDF09002B2122EC4FDEE5407A3F0EC124F
:102590002E592D122E8DE0FB7A009002B4122EDC03
:1025A0008005C333CE33CED8F9FFEE5AFEEF5B4E33
:1025B000704D9002B2E0FE122E592D122E8DC08366
:1025C000C082E0FF9002B4E0FD7401C8EDC808804D
:1025D00002C333D8FC4FD082D083F0EE122EFD120E
:1025E0002E699002B2122EABC083C0829002B3E07B
:1025F000D082D08375F002120D14EEF0A3EFF0221A
:102600000508AB1BE4FF3005169002BEE0FCA3E01A
:10261000F5828C83E0FE54F0FFEE540FF0C20522E9
:10262000029203030A120DA00EA60FFF0C020BFF6D
:1026300023F724072504070127082A0828062B0664
:1026400029032C032D042E042F0426040212030652
:102650000A100D100E800FFF0C020BFF23F4240450
:102660002504070127102A1028042B0429032C0312
:102670002D202E202F102620EF75F003A424ADF579
:1026800082E43401F583E58222F583E493FE74014C
:1026900093FFE4FCFD902F60E0F8A3E0F9A3E0FADB
:1026A000A3E02FFFEA3EFEED39EC38222EF582E45E
:1026B0003583F5832208E224FFF218E234FFF22288
:1026C000741B2BF582E43402F58322E4E075F008F4
:1026D000A424CBF582E43401F58322D3E2940018DC
:1026E000E2940022EFF0FCA3E0FE131313541F2228
:1026F00025E0249BF582E43401F58322E0FF740198
:102700007E00C8EFC80822902F60A3A3E0FEA3E0DC
:10271000FF22F583C37401939FE4939E2225E02456
:1027200062F582E4343D22E0FCA3E0FDD39FEC9E01
:102730002225E02476F582E4343D227F997A0079DF
:10274000001217E878027401F2087400F274DA12C9
:1027500017C97400F274DC1217C97400F20874DE31
:102760001217CA7400F20874C81217CA7400F2086B
:1027700074C41217CA7400F20874C2F2781D74018E
:10278000F2087400F20874BCF278967401F20874CE
:1027900001F208741AF278207401F2087400F20849
:1027A00074B21217CA7400F20874B8F27814740183
:1027B000F2087400F20874CC1217CA7400F208749C
:1027C000C01217CA7400F20874CEF27575007576DF
:1027D000C8781412173DF9E5758576F0120B0F08CD
:1027E00012173DF9E475F064120B0F0812173DF94A
:1027F000E475F096020B0F9002B4EEF0A3EFF0E553
:102800005C455B700C9002B4E0F55BA3E0F55C8086
:10281000169002B5E0255CFF9002B4E0355B12191A
:102820006BF55BEF13F55C055DE55DD3940A400D38
:10283000855B59855C5AE4F55BF55CF55DD3E55A3B
:102840009400E5599400405A9002B5E0955AFF90E3
:1028500002B4E09559FE123EA5C3EF940FEE6480DA
:1028600094805026AE59AF5A7D031217629002B47D
:10287000E0FEA3E0FFE4FCFDEB2FFFEA3E12180DA3
:102880007802120C9F9002B480139002B5E0255A92
:10289000FF9002B4E03559C313FEEF13FFEEF0A32F
:1028A000EFF09002B4E0FEA3E0FF2220016CD20121
:1028B000E4FFEF25E02413F582E4343E121AE0240D
:1028C00037F582E43402F583ECF0A3EDF0EF25E078
:1028D000240DF582E4343E121AE0121B34ECF0A30E
:1028E000EDF0EF25E02419F582E4343E121AE024DD
:1028F0003DF582E43402F583ECF0A3EDF00FEFB484
:1029000003B0900233A3E0121B6DA3EFF0900235E9
:10291000A3E08D828C83A3A3A3F0121ABFF5828E4D
:1029200083A3E0B4AA03123AB5121ABFFF121AAA7F
:10293000E0B41008EF121AAAE4F0D209121ABFFF8D
:10294000241B121AACE0700DEF241C121AACE0B478
:102950001003123A2F229002AEEEF0A3EFF01218FD
:10296000959002AEE07002A3E060031233181238B3
:102970004DE4787DF208F27F10123CB9121865A37D
:102980007402F0A374BCF07800E2F908E2FF0812C8
:10299000173D1217D10812173D12185E780B121747
:1029A0003D12194E0812173D12185E0812173D12FB
:1029B000194E90018B7410F0E4782CF2782E120CE2
:1029C000FB00000000783212192BF278001218C9AF
:1029D00012173D1217D1E4782DF290029C1219576C
:1029E000FE7F10FD7BFE7A007986120D4D781D1258
:1029F0001728788C1218D87894E4F20874C8F22258
:102A00009002B3EDF09002B2122EC4A3F0EE540780
:102A1000A3F09002B4E0FFEC122E592F122E8DE09D
:102A2000FD7C009002B5122EDC8005C333CE33CE80
:102A3000D8F9FFEE5CFEEF5D4E6062122EE7900269
:102A4000B2122EABC083C0829002B3E0D082D0839A
:102A500075F002120D14122F075042C3EF9DFFEEC6
:102A60009CFE9002B2E0FD122EFD122EF2402E903E
:102A700002B4E0FFED122E592F122E8DC083C082BA
:102A8000E0FF9002B5E0FE7401C8EEC8088002C302
:102A900033D8FCF45FD082D083F07F01227F002204
:102AA000121B49900194E0601BE49002ACF090028C
:102AB000ACE0FF2400121A1D121BCDE0B416EFE4A7
:102AC000900194F0E49002ACF09002ACE0FFC3946B
:102AD000035011748B2F121A03E4F0A374FFF01249
:102AE0001BCD80E5E49002ACF09002ACE0FFC39413
:102AF0000350421237859002ACE0248B121B7CFFFE
:102B0000122A01EF7029E4121BB79002ACE0B40165
:102B10000B121A01E0FEA3E08E19F51A9002ACE048
:102B2000FFB4020B121A01E0FEA3E08E17F5181293
:102B30001BCD0232C9023C8C120866902E42E0FE88
:102B4000A3E0242AFFEE34FE9002B0F0A3EFF012CF
:102B50003BCD12183F902EC314F0123E80902E02EF
:102B60007D091218278E268F277D10120D20EF2445
:102B7000E0F570EE34B1F56FED34FFF56EEC34FF37
:102B8000F56D121789123E49902E5EE4F0A374FF92
:102B9000F07F0F122A01902E5EE0FEA3E0D394F0A6
:102BA000EE94014007902E5EE4F0A3F0439980126A
:102BB00019109000B77410F0121822EF2444FFEEA1
:102BC00034FDF9782012173DC98FF0020B0F758A7A
:102BD00050758601538AEF757811757722757933B0
:102BE0007599BF759A40E4FFFEC29500209609D200
:102BF00095003096037578870FBF00010EEF640AC9
:102C00004E70E67590FF75999F759A607580FF7597
:102C100089FE759501000000E4FEFF3080063095C6
:102C2000032096037577870FBF00010EEF640A4EED
:102C300070E9E4F5AB75AC1DF5ADF5AF7589FF75C1
:102C4000913E7599FFF59675931CF59BF595F59258
:102C5000F59A5388FED28AD20C22902EC0E4F090CE
:102C600002A5F09002A3F0FC748B2C121B7CFE13C7
:102C70001313541FFDEE5407FEED14601B04702E59
:102C80009002A3E0FD7401C8EEC8088002C333D8E7
:102C9000FC4D9002A3F080169002A5E0FF7401C8DD
:102CA000EEC8088002C333D8FC4F9002A5F00CECAC
:102CB000B403B59002A3E0FF42AB9002A5E0FE4250
:102CC000ADEFF4FF5289EEF4FE5299EF5295EE52B9
:102CD0009A9002A3E0F452969002A5E0F4529B7FF2
:102CE00003220239EBE493A3F8E493A34003F680B4
:102CF00001F208DFF48029E493A3F85407240CC8F8
:102D0000C333C4540F4420C8834004F456800146A2
:102D1000F6DFE4800B010204081020408090372089
:102D2000E47E019360BCA3FF543F30E509541FFECD
:102D3000E493A360010ECF54C025E060A840B8E43E
:102D400093A3FAE493A3F8E493A3C8C582C8CAC5C1
:102D500083CAF0A3C8C582C8CAC583CADFE9DEE753
:102D600080BE30000875751375768880067575000D
:102D70007576C87805121728FFAEF0C39576EE95E4
:102D8000755013782CE2601E781A121728FDC3EFD5
:102D90009DEE95F04010900296E07002A3E0702B3B
:102DA000782C04F280259000B1E0B4200512193E81
:102DB0008009900296E4F0A374C8F0E4782CF290B5
:102DC0000294F0A3F090018B7410F0782CE2601163
:102DD0009000BEE090018BB410047410F0227420B7
:102DE000F022900280E064016006A3E06401705864
:102DF0007B017D027F01123AF57B047D087F021280
:102E00003AF590018AE0540F640A60239002A4E02E
:102E1000B40A1C7D017F021231E0EF700A7D027F4F
:102E2000021231E0EF600890018AE09002A4F09075
:102E3000018AE054F0FFF09002A4E0FE4F90018A76
:102E4000F0EE54FA9002A4F09002A4E0540A600458
:102E5000D2028002C2027F0422CDEFCD43AD1053D7
:102E600099EF439A10539BEF902EC07402F0147E9A
:102E700000C8EDC8088005C333CE33CED8F9FF9023
:102E80002EC4EEF0A3EFF0902EC8EEF0A3EFF07496
:102E900010123E01902EC0E030E2F9902EC0E4F016
:102EA0007402F07420123E01902EC0E030E2F990DE
:102EB0002E00E0FEA3E0FF902EC4E4F0A3F0902EDD
:102EC000C0F0439910539AEF539BEF5390EF229029
:102ED00002A1E01460141460392402705130880794
:102EE00012370FD204D200C203227F02123C2EEF0F
:102EF00060077F02123EB1C2042088329002A174A2
:102F000002F0D203C204C2007F03123EB17F03026B
:102F10003B667F03123C2EEF60147F03123EB1200C
:102F20008807E49002A1F0800312370FC2032290B9
:102F300002A17401F07F02123EB17F02123B6622B1
:102F4000C10B410199004102A3004102A5004102C9
:102F5000A2004102A900C101C1024102A400410234
:102F6000AA004102A100C103C100C10443028B00B9
:102F70000D0E011D00011E00021B0000C105C1074E
:102F8000C1064102BD104102C200C10AC10941028D
:102F9000C40002260000046D000000004102C310BE
:102FA00041019A0000121B49EF25E025E0241FF59E
:102FB00082E4343EF583E4937014902EC4121A7D9B
:102FC000F5ABF45289121A7E902EC5F08013902E24
:102FD000C5E4121A7DF5ADF45299121A7E902EC4F2
:102FE000F0EF25E025E02421F582E4343EF583E48A
:102FF00093902EC3F0EF25E025E02422F582E434FF
:103000003EF583E493902ECAF022200906200303A4
:10301000300409E4FFFE123136C2092290029AE020
:103020007002A3E060051218D1703E200003123A2E
:103030007212384D7F01123CB912280A9002ACEE90
:10304000F0A3EFF07B017A0279AC1239A29002ACC6
:10305000E0F9A3E0FF780212173D1217D112142DE8
:10306000123542121BE8122AE9123DCC2243890292
:103070005395FD5396FD438002123D887F0C123616
:1030800039CAEECACBEFCB7F0C123639EF2BFFEEED
:103090003A9002B1F0A3EFF0781DE2FB08E2FA08E3
:1030A000E2F9120A2745F07005123DED8015120A6B
:1030B00027FD123DEDFEEF2DFFEE35F0C313FEEFC1
:1030C00013FFEE8FF0120B0F22C201E4FFEF121A72
:1030D00045E4F0A3F0EF121A55E4F0A3121A71E4DC
:1030E000F0EF25E02482F582E43402F583E4F0A3D6
:1030F000F0121AD5E4121AB3E4F0121B00E4F074D3
:10310000462FF582E43402F583E4F00FEFB403BDFB
:10311000C202E49002A4F0900289747EF09002242E
:10312000F022E4FECFEECF123785902EC07419F056
:10313000902EC0E030E2F9902EC4E4F0A3F0902E7F
:10314000C0F0121BB7439040748B2E121B7C75F09D
:1031500002A42400121A11E0FCA3E0FD900249121F
:1031600019D575F002EE1219E6EC8DF0120B2E0E49
:10317000EEB403B0221218D1702E9002C4E0700891
:10318000900290F0A37464F09002C47401F0900077
:10319000BFE0B420081237EA120D798003123CE632
:1031A00090029E7401F08017E49002C4F09000BF7A
:1031B000E0B420031237EA90029EE06002E4F002DD
:1031C0003E2B9002AEEBF0A3EAF0A3E9F090029060
:1031D000E07002A3E07033782DE2602EE4782DF2E7
:1031E00012384D1218657508017F01123CB912287A
:1031F0000A9002AEE0FBA3E0FAA3E012192405084E
:10320000E508C3941040E212193E2212084E53A85A
:103210007F1233AE12081E123D1343A880123EBA2D
:10322000900195E0600690028A7401F0122DE4127C
:10323000308B1220F5900199E0FF90018AE0FE6F3B
:1032400060EA9000A1EEF0900199F0C28A80DD1250
:10325000082EE4F5F275F30875EEFF75EF3F75EA99
:1032600081F5F675EB0700E5EC30E7FBE4F5EC9053
:1032700002BEE0FEA3E0FF241BF582E43EF583E5F9
:10328000F3F0EF241CF582E43EF583E5F2F075EBF4
:10329000302230063FC206902E42E0FFA3E09002AB
:1032A000AECFF0A3EFF0120866121822EF244CFF05
:1032B000EE341DF9782012173DC98FF0120B0F1252
:1032C000183F9002AEE0FFA3E0902E42CFF0A3EFB4
:1032D000F012186522E4FDFE758A10538AEF007C17
:1032E000088D828C83E493FF6EFE0DBD00010CBC43
:1032F0003FEFBDDFEC903FDFE4936E9002BE7008BD
:10330000123E767405F08005123E76E4F0758A5020
:10331000538AEF0022CAEFCA121AB4E060317479FE
:103320002A121AD8E0B4010F9002A4E0FEEBF4FCDC
:10333000EE5CF04DF080109002A4E0FF5D6008EDBF
:10334000F4FEEF5EF04BF0747F2A121AB7E4F0221D
:1033500000000000FFFFFFFF0000FFFFFFFFFFFF77
:10336000FFFFFF00FF000000FFFF000000FFFFFF66
:10337000FFFFFFFF00000000FFFFFFFFFFFFFFFF59
:10338000FFFF000000009002ACEFF0E0241B122EC3
:10339000A3E060037F01229002ACE0FF241B122E09
:1033A000A37401F0EF122F11122E699002ACE012FB
:1033B0002ED0EEF0A3EFF07F002212183FE4FF744E
:1033C000EA2FF582E43400F583E0FE75F002EFA405
:1033D0002400F582E5F0342EF583E49324C0F582D1
:1033E000E4342EF583EEF00FEFB416D32243AB0294
:1033F0005389FD5395FD5396FD53997F123B9A12C5
:10340000183F902EC27492F074061219617403F082
:10341000902EE9F0902EC4E4F0A37402F022758B94
:1034200011902F647440F0E4FEE4FF122E58122E27
:103430008CE4F00FEFB40AF30EEEB403EC7F0990C6
:10344000021BE4F0A3DFFC902F647480F022CBEF2A
:10345000CB122EA0E06024122EE7EB122ED0122FFA
:10346000075018C3EF9DFFEE9CFEEB122F11122E9A
:10347000F24008122EA0E4F07F01227F0022ED131B
:103480001313541FFEED5407FD122E58122E8CC03C
:1034900083C082E0FFCEEDCE7401C8EEC808800282
:1034A000C333D8FCF45FD082D083F022300C29C320
:1034B000E51A9420E51994005003757987C3E5183F
:1034C0009420E51794005003757987C20C121ABF37
:1034D0002406121AACE579F0229002B1EFF0123B0B
:1034E0009AE4F5099002B1E0FFE509C39F50071285
:1034F0001129050980EE902EC0E4F01225E878002D
:10350000EEF208EFF222E4F5B2F5BA758D20438DA4
:1035100020538D7F53AAF7F58BE5DB20E211200BBA
:103520000EE4F58A758703000000758A50D209758C
:103530008B11229002BEE0FFA3E0A3CFF0A3EFF037
:10354000E4F5DA75DA4043DA2075D74075DA587554
:10355000D90143A90875B80875F8082275AD40531C
:1035600099BF12183F902EC27412F0E412196174C0
:1035700007F0902EE9F0902EC5E4F0902EC4744030
:10358000F02201F40064006401F4009603E801F401
:1035900003E81770006403E8003202580258012C57
:1035A00001F403E8271000C8902EC07402F0902E9A
:1035B000C77471F0902ECD74C0F0A374FFF0A3F027
:1035C000902EC37401F0902ECAF022121B49E4FF22
:1035D000121A1A0FEFB416F8902EC4E4F0A3F012EA
:1035E00039021239029002887401F02290018BE0B6
:1035F000FF9002C3E06F60149002C3EFF090018A65
:10360000E0540FFFF0A3E04F90018AF0229002B245
:10361000E0C4F8540FC868FF9002B1E0C454F04809
:1036200022902EC2F0902EC0E04419F022009600A5
:103630008200B4009B008700B9008C007800AA00CB
:103640000110100220090802401208E5B230E0051E
:10365000E5AA20E013E49002A0F075B28E75B6F9E9
:10366000F5B743B20143AA012253997F12183F9044
:103670002EC27412F0902EC77401F0902EC4748084
:10368000F0A3E4F022251EF582E43CF583229002AB
:10369000C0E0FCA3E022E0FEA3E0F5828E83A3223B
:1036A000902EC07419F0902EC0E030E2F9902EC038
:1036B000E4F02212343A900195E06008123280E47E
:1036C000900195F022EE30E707C3E49FFFE49EFEF1
:1036D00022741B2F122EA3E4F022123EC6023BFEE0
:1036E000D2AF32D2AF32023E2B0000000000000009
:1036F00000000000000000000000000000000000CA
:1037000000000000000000000000000000000000B9
:1037100000000000000000000000000000000000A9
:103720000000000000000000000000000000000099
:103730000000000000000000000000000000000089
:103740000000000000000000000000000000000079
:103750000000000000000000000000000000000069
:103760000000000000000000000000000000000059
:103770000000000000000000000000000000000049
:103780000000000000000000000000000000000039
:103790000000000000000000000000000000000029
:1037A0000000000000000000000000000000000019
:1037B0000000000000000000000000000000000009
:1037C00000000000000000000000000000000000F9
:1037D00000000000000000000000000000000000E9
:1037E00000000000000000000000000000000000D9
:1037F000000000000000000000000000000000C801
:1038000000000000000000000000000000000000B8
:1038100000000000000000000000000000000000A8
:00000001FF
